:020000040800F2
:10000000102B0020210200081B1B00089319000878
:10001000191B0008ED040008111E00080000000074
:10002000000000000000000000000000890100083E
:10003000EF04000800000000CD010008E51C0008E6
:100040003B0200083B0200083B0200083B0200089C
:100050003B0200083B0200083B0200083B0200088C
:100060003B0200083B0200083B0200083B0200087C
:100070003B0200083B0200083B0200083B0200086C
:100080003B0200083B0200083B0200083B0200085C
:100090003B0200083B0200083B0200083B0200084C
:1000A0003B0200083B0200083B0200083B0200083C
:1000B0003B0200083B0200088D1D00083B020008BF
:1000C0003B0200083B0200083B0200083B0200081C
:1000D0003B0200083B0200083B0200083B0200080C
:1000E0003B0200083B0200083B02000800F002F857
:1000F00000F03AF80AA090E8000C82448344AAF188
:100100000107DA4501D100F02FF8AFF2090EBAE885
:100110000F0013F0010F18BFFB1A43F0010318473B
:10012000FC3600001C370000103A24BF78C878C1A4
:10013000FAD8520724BF30C830C144BF04680C60ED
:10014000704700000023002400250026103A28BF35
:1001500078C1FBD8520728BF30C148BF0B60704739
:100160001FB51FBD10B510BD00F01BF91146FFF7FC
:10017000F7FF01F065FE00F039F903B4FFF7F2FF75
:1001800003BC00F041F90000224B19680868B0E890
:10019000F00F80F30988BFF36F8F4FF0000080F3FA
:1001A00011884EF00D0E70470000000006480068F0
:1001B000006880F3088862B661B6BFF34F8FBFF363
:1001C0006F8F00DF00BF00BF08ED00E0EFF3098094
:1001D000BFF36F8F0F4B1A6820E9F00F106008B55E
:1001E0004FF0500080F31188BFF34F8FBFF36F8F34
:1001F00002F0A6FB4FF0000080F31188BDE8084034
:1002000019680868B0E8F00F80F30988BFF36F8FB2
:10021000704700BF30000020EFF3058070470000FA
:100220000948804709480047FEE7FEE7FEE7FEE78A
:10023000FEE7FEE7FEE7FEE7FEE7FEE704480549C6
:10024000054A064B70470000891D0008ED000008B4
:1002500010250020102B0020102700201027002040
:10026000032A40F2308010F0030C00F0158011F8E2
:10027000013BBCF1020F624498BF11F801CB00F8BA
:10028000013B38BF11F8013BA2F1040298BF00F80E
:1002900001CB38BF00F8013B11F0030300F02580CB
:1002A000083AC0F0088051F8043B083A51F804CBF2
:1002B000A0E80810F5E7121D5CBF51F8043B40F8B8
:1002C000043BAFF30080D20724BF11F8013B11F8C3
:1002D00001CB48BF11F8012B24BF00F8013B00F807
:1002E00001CB48BF00F8012B704710B5203AC0F091
:1002F0000B80B1E81850203AA0E81850B1E8185027
:10030000A0E81850BFF4F5AF5FEA027C24BFB1E863
:100310001850A0E8185044BF18C918C0BDE81040D4
:100320005FEA827C24BF51F8043B40F8043B08BFDD
:100330007047D20728BF31F8023B48BF11F8012BA4
:1003400028BF20F8023B48BF00F8012B70474FF050
:10035000000200B5134694469646203922BFA0E815
:100360000C50A0E80C50B1F12001BFF4F7AF090721
:1003700028BFA0E80C5048BF0CC05DF804EB890012
:1003800028BF40F8042B08BF704748BF20F8022B55
:1003900011F0804F18BF00F8012B7047704770476D
:1003A0007047754600F02CF8AE4605006946534686
:1003B00020F00700854618B020B5FFF73FFFBDE8E5
:1003C00020404FF000064FF000074FF000084FF0BC
:1003D000000B21F00701AC46ACE8C009ACE8C0094D
:1003E000ACE8C009ACE8C0098D46704710B50446BA
:1003F000AFF300802046BDE81040FFF7BEBE00000E
:1004000000487047AC24002001491820ABBEFEE72D
:10041000260002007047000070B50446006881683D
:10042000C943C90717D1816821F00101816000F03B
:1004300089FD05460AE000BF00F084FD401B02284C
:1004400004D920688068C043C00706D0206880684F
:10045000C043C007F0D0002070BDA06A40F010007B
:10046000A062E06A40F00100E062012070BD00007F
:10047000F8B500260446009600688168C943C9079C
:100480002DD0816841F0010181601648164900684D
:10049000B0FBF1F000E0401E00900028FBD100F01E
:1004A00051FD054616E000BF00F04CFD401B022840
:1004B00010D920688068C043C0070BD0A06A40F004
:1004C0001000A062E06A40F00100E06284F824605D
:1004D0000120F8BD20688068C043C007E4D1002037
:1004E000F8BD00002C00002040420F00FEE77047DE
:1004F000F8B50024009490F824202546012A12D053
:10050000012280F824204A681F23072A0DD206689A
:10051000776B521E02EB820293409F430B6893401D
:100520001F43776319E00220F8BD06680D2A0AD23E
:10053000376BD21F02EB820293409F430B689340BC
:100540001F43376309E0F76A0D3A02EB82029340DA
:100550009F430B6893401F43F7620A6807230668AE
:100560000A2A0AD3F7680A3A02EB420293409F43F1
:100570008B6893401F43F76008E0376902EB420243
:1005800093409F438B6893401F4337610A68102A4A
:1005900001D0112A20D1124B02689A4217D19368D8
:1005A0001B0219D4936843F400039360096810296F
:1005B00012D10C490C4A0968B1FBF2F101EB81013F
:1005C000490000E0491E00910029FBD104E0816A46
:1005D00041F020018162012480F824502046F8BDBA
:1005E000002401402C00002040420F000068C06C35
:1005F000704700002DE9F0414FF0000704003D4630
:100600007ED0A06A002628B9E66284F824602046DD
:1006100000F07EF82046FFF7FFFEA16AC90600D46D
:1006200020B1A06A40F01000A06269E0A16A21F444
:10063000885141F00201A1626268E169237B0A43AB
:1006400047EA43010A43A1684FF48077B94209D0D1
:10065000012907D05FF0000194F814C0BCF1010F2C
:1006600002D00AE03946F7E7F3B1A36A43F020036A
:10067000A362E36A43F00103E3622368D3F804C092
:100680002CF4694C4CEA010CC3F804C021688B6857
:10069000DFF870C003EA0C0313438B60A168B94212
:1006A0000BD0012909D00CE0DFF85CC0A3690CEB8A
:1006B00043330B4343F40061DFE7218A0D05A5F5C1
:1006C00080152168CB6A23F470032B43CB62216829
:1006D00089680E4B1940914208D1E662A16A21F067
:1006E000020141F00101A162BDE8F081A06A20F0A1
:1006F000020040F01000A062E06A40F00100E062F9
:100700000120F1E7FDF7E1FF00E0FFFFFE0E1FFF14
:1007100010B586B0002100910191029103911A4C0D
:1007200003681A4903221A48A34211D18B6943F482
:1007300000738B618B6903F4007304938B6943F03E
:1007400004038B61896901F004010491012113E024
:10075000104CA34215D18B6943F480638B618B6984
:1007600003F4806304938B6943F004038B6189690C
:1007700001F0040104910421CDE90012694600F062
:10078000E7FA06B010BD000000240140001002404E
:1007900000080140002801402DE9F84300270D46DC
:1007A0000446009700F0CEFB804620688168C905AA
:1007B00008D5A06A40F02000A06284F824700120CF
:1007C000BDE8F8834168C90503D4C06A10F4700F0E
:1007D0002AD0022000F086FC3B490968B1FBF0F604
:1007E0002068036939490B424FEA61014FEAA112BF
:1007F0001FD1C3684FEA611C13EA0C0F19D10369BA
:100800000B4225D1C068104222D1142023E0681C7D
:100810000AD02DB100F096FBA0EB0800A84203D946
:1008200020680068800725D5206800688007EED51D
:100830002DE003690B4202D1C168114206D0026962
:1008400023490A4206D1C068084203D1542002E07D
:10085000292000E0FC204643009816E0681C11D0D7
:100860002DB100F06FFBA0EB0800A8420AD9009858
:10087000B04207D2A06A40F00400A06284F824705D
:1008800003209DE70098401C0090B042E6D3216809
:100890006FF012000860A06A40F40070A062206847
:1008A0008068C0F3424007280CD1207B50B9A06A71
:1008B00020F48070A062A06AC00403D4A06A40F053
:1008C0000100A06200207BE72C0000202449922434
:1008D0004992240070B5044690F8240001280DD0F8
:1008E000012084F824002046FFF7C2FD02004FF0EB
:1008F000000005D084F82400104670BD022070BDB1
:10090000A16A40F20123994341F48071A1621F4D15
:1009100023681F49AB4218D10E6816F4702F14D00B
:10092000A66A46F48016A6620E68760505D5A66A04
:1009300026F4005646F48056A662A66AF6040AD546
:10094000E66A26F00606E66206E0A66A26F4801647
:10095000A6625E68E9E7E06284F824006FF00200B6
:10096000186020688368C3F34243072B05D1A8426F
:1009700008D1096811F4702F04D0816841F4801106
:100980008160B9E7816841F4A001F9E700280140DE
:100990000424014010B5044690F82400012807D033
:1009A000012084F824002046FFF736FD10B107E04F
:1009B000022010BDA16A21F4885141F00101A16219
:1009C000002184F8241010BDF0B590F82050046880
:1009D000A468012D05D0022D03D0416A41F4802185
:1009E0004DE014F0406F01D1E50045D5C4F301643A
:1009F0000125A5401D608D684FF4C0739DB1CE6880
:100A000035434E6845EAC605066803EB0417F55101
:100A10004FF4C275076805EB04150E697E51097D18
:100A2000012905D009E00E88CD6845EA4655EBE777
:100A300001684E5946F480764E511179D2F805502E
:100A40004FF4C67641EA0521056806EB0416A95164
:100A50001178D2F801204FF4C47541EA02210268EE
:100A600005EB04155151006803EB0411425842F0A4
:100A7000010242500020F0BD416A41F40011416280
:100A80000120F0BD10B590F820300268012B07D08E
:100A9000022B05D0416A41F480214162012010BD42
:100AA000D2F8000240F00100C2F80002087D00F018
:100AB0001F0301209840D2F81C328343C2F81C3235
:100AC000CB69B3B9D2F80C328343C2F80C328C89AB
:100AD0004B6864F31F434C6902EBC404C4F8403212
:100AE0000C890B6864F31F434C6902EBC404C4F81F
:100AF0004432CB69012B16D1D2F80C320343C2F831
:100B00000C320C884B6864F31F434C6902EBC4043D
:100B1000C4F840320C89CB6864F31F434C6902EB84
:100B2000C404C4F844328B69002BD2F804320FD0CD
:100B300053EA0003C2F804320B69002BD2F81432D6
:100B400008D00343C2F81432096A012904D008E02E
:100B50008343EFE78343F5E7D2F81C120143C2F861
:100B60001C12D2F8000220F00100C2F8000200209E
:100B700010BD70B5040003D094F8200010B104E05B
:100B8000012070BD204600F081F82068016841F026
:100B90000101016000F0D6F90546052604E000F0E9
:100BA000D1F9401B0A2811D820684068C007F6D048
:100BB0002068016821F00201016000F0C3F90546D8
:100BC0000BE000F0BFF9401B0A2806D9606A40F428
:100BD0000030606284F82060D2E7206840688007B7
:100BE000EFD4207E0128206801683DD021F08001EB
:100BF0000160607E01282068016838D021F0400142
:100C00000160A07E01282068016833D021F0200116
:100C10000160E07E0128206801682ED041F01001BB
:100C20000160207F01282068016829D021F0080197
:100C30000160607F01282068016824D021F0040150
:100C40000160D4E902010843D4E9041211430843C6
:100C50006168491E08432168C86100206062012064
:100C600084F82000002070BD41F08001C0E741F011
:100C70004001C5E741F02001CAE721F01001CFE7AC
:100C800041F00801D4E741F00401D9E710B586B07E
:100C9000002100910191029103910068134988425B
:100CA00022D11348C16941F00071C161C16901F0ED
:100CB00000710491816941F00401816180690D4CEA
:100CC00000F0040004904FF4006000906946204654
:100CD00000F03EF8A0140090022001900320039041
:100CE0006946204600F034F806B010BD00640040AC
:100CF000001002400008014070B5044690F8200042
:100D0000012804D0606A40F40020606218E00220EC
:100D100084F820002068016821F00101016000F0E2
:100D200011F905460EE000BF00F00CF9401B0A283F
:100D300008D9606A40F400306062052084F8200021
:100D4000012070BD20684068C007EDD1606270BDB1
:100D50002DE9F84FDFF8B8910024A9F1040B2346E0
:100D60000F2709F1040AABF1040EC9E00125A540E3
:100D70002A40AA427DD1674ED1F804C0ACEB0608E8
:100D8000B44532D014DCBCF1030F3AD009DCBCF11D
:100D9000000F2AD0BCF1010F1CD0BCF1020F31D1E1
:100DA0001DE0BCF1110F17D0BCF1120F2AD119E0D0
:100DB000B8F5881F19D006DCB8F5803F15D0B8F516
:100DC000801F1FD111E0B8F5001F0ED0B8F5041F29
:100DD00018D10AE0CB6815E0CB681B1D12E0CB6888
:100DE00008330FE0CB680C330CE08B682BB1012B80
:100DF0004FF0080303D0456104E0042302E00561DD
:100E000000E00023FF2A01D8064601E000F10406B5
:100E10004FEA840501D9A5F12005D6F8008007FA2C
:100E200005FC28EA0C0803FA05F548EA0508C6F8A7
:100E300000804D68ED0062D5374DAE6946F0010681
:100E4000AE61AD6924F0030605F001050095334D50
:100E500006EB050CDCF80850A607360F07FA06F873
:100E600025EA0805DFF8B880404503D14FF00008B7
:100E700017E044E0DFF8AC80404502D14FF00108B4
:100E80000FE0DFF8A480404502D14FF0020808E0EF
:100E9000DFF89880404502D14FF0030801E04FF0A1
:100EA000040808FA06F848EA0508CCF808804D68F6
:100EB000D9F80060ED024D4601D5164300E0964397
:100EC0002E604D68DAF80060AD02554601D5164334
:100ED00000E096432E604D68DBF80060AD035D4690
:100EE00001D5164300E096432E604D68DEF80060A1
:100EF000ED03754601D5164300E096432E60641C51
:100F00000D682A46E5407FF431AFBDE8F88F000058
:100F100008040140000011100010024000000140D0
:100F200000080140000C0140001001400014014085
:100F30008068084000D0012070470AB10161704705
:100F40000904FBE70148806870470000200000208A
:100F500002488168027811448160704720000020B7
:100F6000074810B5016841F010010160032000F04E
:100F7000A7F80F2000F006F800F050F8002010BD90
:100F80000020024030B505461F4887B0C16941F0D6
:100F90000401C161C06906A900F00400009001A825
:100FA00000F0FEF90498B0B100F01AFA40001749B9
:100FB000174AB0FBF1F11748491E0260416040F248
:100FC000E7320021C0E903218160816100F0E0FB8C
:100FD000040003D015E000F003FAE8E70D4800F044
:100FE00005FC04000DD11E2000F03CF8102D07D2A6
:100FF000002229461E2000F043F80748056000E063
:10100000012407B0204630BD0010024040420F00CE
:101010000008004074030020240000200F4808B599
:10102000816941F001018161816901F00101009153
:10103000C16941F08051C161C069002200F0805057
:1010400000900F21901E00F01BF80548416821F028
:10105000E06141F00071416008BD000000100240F5
:1010600000000140002809DB00F01F02012191402F
:101070004009800000F1E020C0F800117047000036
:10108000F0B40E4B1B680C46C3F30223C3F10705F3
:10109000042D00D90425191D072901D2002300E0E1
:1010A000DB1E012606FA05F1491E214099409E40AB
:1010B000761E16403143F0BC00F0ABBE0CED00E0F4
:1010C000064900F0070208684FF6FF03184040EA9F
:1010D0000220034A10430860704700000CED00E056
:1010E0000000FA0510B501460020234C012922D04A
:1010F000022939D010291DD161682268D20119D581
:101100001E48C1F38342C903805C0AD561681B4A4B
:10111000C1F34041921E515C194AB2FBF1F14843C0
:1011200001E0184948436168490203D440000321A3
:10113000B0FBF1F010BD226AC2F30121012903D1F5
:10114000920701D5C80310BD022905D1626A920732
:1011500002D549F6404010BD0329FCD1216889031E
:10116000F9D54FF2244010BD00F04AF96168C1F38F
:101170008131491C4900DBE700100240B837000804
:1011800000127A0000093D002DE9F8430546007879
:10119000354CC00754D0E0690026C00008D4E0698F
:1011A00040F08050E061E069012600F0805000903E
:1011B0002E480168C90512D40168804641F4807147
:1011C0000160FFF7BFFE074605E000BFFFF7BAFE6C
:1011D000C01B642823D8D8F80000C005F6D5206AC3
:1011E00010F4407021D0A98801F4407181421CD0D4
:1011F000206A1F49012220F440700A6000220A6020
:101200002062C00711D0FFF79DFE074641F28838E3
:1012100008E000BFFFF796FEC11B414502D903203D
:10122000BDE8F883206A8007F4D5206A696820F455
:101230004070084320621EB1E06920F08050E061F8
:101240002878800705D56068A96820F440400843E5
:1012500060602878C00605D56068E96820F48000E1
:10126000084360600020DBE700100240007000408F
:10127000400442422DE9F0470F46050061D0434E3D
:10128000306800F00700B84209D2306820F007004B
:1012900038433060306800F00700B84251D1286808
:1012A0003B4C810712D5400703D5606840F4E060ED
:1012B00060602878000703D5606840F46050606083
:1012C0006068A96820F0F000084360602878C007D3
:1012D00028D06868012810D02168022810D089071A
:1012E00000292EDA616821F0030101436160FFF7F4
:1012F00029FE804641F288390DE021688903EFE735
:101300008901EDE7FFF71EFEA0EB0801494502D970
:101310000320BDE8F0876068696800F00C00B0EB5E
:10132000810FEFD1306800F00700B8420BD9306868
:1013300020F0070038433060306800F00700B84202
:1013400001D00120E5E72878400705D56068E96805
:1013500020F4E060084360602878000706D56068E4
:10136000296920F4605040EAC100606000F058F83C
:101370006168084AC1F30311515CC840064908601E
:1013800006480068FFF7FEFD0020C2E7002002408B
:1013900000100240C83700082C0000202400002064
:1013A0000F2202600C4A536803F003034360536842
:1013B00003F0F0038360536803F4E063C360526892
:1013C0004FF4E06303EAD20202610448006800F0CF
:1013D0000700086070470000001002400020024033
:1013E0000448054900684968044AC1F30221515C78
:1013F000C84070472C00002000100240D837000879
:101400000448054900684968044AC1F3C221515C97
:10141000C84070472C00002000100240D837000858
:101420000E4A51680E4801F00C03042B11D0082B12
:101430000FD10C48C1F38343C903C05C0AD551687E
:10144000084AC1F34041921E515C054A5043B0FB2B
:10145000F1F0704704494843704700000010024013
:1014600000127A00A637000800093D002DE9F84F68
:10147000040070D02078C04DC00749D06868C0F320
:101480008100012807D06868C0F38100022809D1D3
:101490006868C00306D52868800339D560680028CD
:1014A000E7D035E06068B0F5803F0BD010B1B0F503
:1014B000A02F11D0286820F480302860286820F4FC
:1014C000802002E0286840F480302860606890B195
:1014D000FFF738FD06460AE0286840F480202860BF
:1014E000F0E700BFFFF72EFD801B642873D8286843
:1014F0008003F7D50CE0FFF725FD064605E000BFA9
:10150000FFF720FD801B6428F0D828688003F7D4FB
:1015100020789A4E80074FF001094FF0000839D526
:10152000686810F00C0F07D06868C0F381000228CB
:1015300009D16868C00306D42868800714D52069DB
:10154000012808D110E02069B0B1C6F80090FFF77B
:10155000F9FC074605E00AE1FFF7F4FCC01B02288E
:10156000C4D828688007F7D52868616920F0F8009A
:1015700040EAC10028600DE0C6F80080FFF7E2FCF9
:10158000074604E0FFF7DEFCC01B022823D82868CA
:101590008007F7D4207800072CD57948A169D9B104
:1015A000C0F80090FFF7CEFC074604E0FFF7CAFC46
:1015B000C01B02280FD8686A8007F7D571484FF41E
:1015C000FA510068B0FBF1F0009000BF0098411E96
:1015D0000091FAD20EE080E0C0F80080FFF7B2FC84
:1015E000074604E0FFF7AEFCC01B022875D8686A06
:1015F0008007F7D42078400760D5E8690027C0004D
:1016000008D4E86940F08050E861E869012700F0FB
:10161000805000905C480168C90513D40168834676
:1016200041F480710160FFF78DFC824606E000BF47
:10163000FFF788FCA0EB0A0064284ED8DBF8000016
:10164000C005F5D5E06801280AD008B1052813D0F7
:10165000286A20F001002862286A20F0040002E0D5
:10166000286A40F001002862E06841F2883B98B1A6
:10167000FFF768FC82460BE0286A40F0040028620D
:10168000EEE700BFFFF75EFCA0EB0A0159455AD810
:10169000286A8007F6D50CE0FFF754FC824605E087
:1016A000FFF750FCA0EB0A0159454CD8286A800787
:1016B000F6D41FB1E86920F08050E861E06988B392
:1016C0006968C1F38101022944D00228C6F860800C
:1016D00004D0FFF737FC044638E034E0FFF732FC73
:1016E000074604E0FFF72EFCC01B02282BD8286811
:1016F0008001F7D4206AB0F5803F05D16868A16801
:1017000020F4003008436860D4E9080108436968A0
:1017100021F4741108436860C6F86090FFF712FC6A
:10172000044606E025E000BFFFF70CFC001B022882
:1017300009D828688001F7D51BE000BFFFF702FC3D
:10174000001B022802D90320BDE8F88F2868800119
:10175000F4D40EE00128F7D06868226A00F48031E2
:10176000914204D1616A00F47010884201D00120D6
:10177000EAE70020E8E700000010024000004242D3
:10178000800442422C0000200070004070477047E7
:1017900010B5040003D094F83D0010B107E001201B
:1017A00010BD002084F83C00204600F01EF8022006
:1017B00084F83D00211D206800F0EEFA012084F835
:1017C000460084F83E0084F83F0084F8400084F826
:1017D000410084F8420084F8430084F8440084F80F
:1017E000450084F83D00002010BD704790F83D1082
:1017F000012901D001207047022180F83D100168C5
:10180000CA6842F00102CA6000680B49884208D0E9
:10181000B0F1804F05D00949884202D0084988427A
:1018200004D1816801F00701062903D0016841F065
:101830000101016000207047002C014000040040BD
:101840000008004070472DE9F04104460068C66872
:1018500005694FF00007A90713D5B10711D5F91E87
:10186000016101202077206880698007204602D02E
:10187000FFF7E8FF04E000F07EF8204600F07CF877
:101880002777680716D5700714D521686FF0040014
:101890000861022020772068806910F4407F20468C
:1018A00002D0FFF7CFFF04E000F065F8204600F01B
:1018B00063F82777280715D5300713D521686FF00F
:1018C00008000861042020772068C069800720464E
:1018D00002D0FFF7B7FF04E000F04DF8204600F01B
:1018E0004BF82777E80616D5F00614D521686FF077
:1018F00010000861082020772068C06910F4407F3C
:10190000204602D0FFF79EFF04E000F034F82046A6
:1019100000F032F82777E80708D0F00706D02168F2
:101920006FF001000861204600F028F8280608D56D
:10193000300606D521686FF0800008612046FFF769
:1019400025FF680608D5700606D521686FF04000AF
:101950000861204600F01CF8A8060AD5B00608D594
:1019600021686FF0200008612046BDE8F041FFF7D4
:101970000EBFBDE8F0817047704700000068034962
:10198000884201D1FFF7E4BA704700000008004028
:101990007047FEE73EB5002410480094019402947D
:1019A0000D498460016004730475012505614FF4DD
:1019B00060214460C161FEF71DFE08B172B6FEE70A
:1019C000CDE90045694605480294FEF791FD0028DF
:1019D00001D072B6FEE73EBD002401409800002011
:1019E0003EB5002411480094019402940E4984608D
:1019F000016001250573047505614FF460214460A1
:101A0000C161FEF7F7FD08B172B6FEE70220CDE92D
:101A10000005694602940548FEF76AFD002801D0DA
:101A200072B6FEE73EBD000000280140C80000205D
:101A30000E4810B50C4901600421416000214FF4AB
:101A400040228160C0E903129200426101760122C6
:101A500042768276C17601774277FFF78AF80028CE
:101A600001D072B6FEE710BD00640040F80000200F
:101A700070B586B000242448009401940294039425
:101A8000816941F010018161816901F010010491C7
:101A9000816941F020018161816901F02001049197
:101AA000816941F004018161816901F004010491BF
:101AB000816941F0080181618069144E00F00800DD
:101AC0004FF400550490002229463046FFF735FABE
:101AD0000120CDE90050022569463046CDE9024596
:101AE000FFF736F94FF490708DE8310069460848E9
:101AF000FFF72EF960208DE8310069460548FFF7B1
:101B000027F906B070BD000000100240001001402F
:101B100000080140000C0140FEE7FEE7012000F054
:101B200011FAFBE7234EDFF89080DFF89090244F06
:101B30004FF0FF352348FEF7CDFE29462148FEF73A
:101B40002BFE2048FEF752FD01F0DEFC314601F08D
:101B5000F9FB414601F0ECFC01F0B6FC60F30F0428
:101B60001848FEF717FF17483030FEF7B3FE154848
:101B700029463030FEF710FE12483030FEF736FDB1
:101B800001F0C2FC314601F0DDFB494601F0D0FC1A
:101B900001F09AFC60F31F440A483030FEF7FAFE69
:101BA00021460022B86900F037FA642000F0CAF933
:101BB000C0E7000000F07F450000164400004844E4
:101BC00000000020980000200E4F0F4D0F4E2021E6
:101BD0003846FFF7ADF960F3070420212846FFF7E8
:101BE000A7F960F30F2440212846FFF7A1F960F31D
:101BF000174421460022F06900F00EFA642000F03C
:101C0000A1F9E4E700080140000C014000000020B9
:101C10009CB0182227490FA8FEF767FB2549182218
:101C2000183115A8FEF761FB234C002209A8A16911
:101C300000F0A8F900220CA8E16900F0A3F90998C6
:101C4000102832D10C9810282FD10A980D99020C27
:101C5000130A8DF800308DF80120050A8DF8025026
:101C60008DF803002678F6018DF804608DF81830A1
:101C70008DF819208DF81A508DF81B00C8000A0A3B
:101C800040EA8200090C40EA410021781BAB08437E
:101C90008DF81C006A460FA90848FEF795FE1BAB9D
:101CA00006AA15A90548FEF78FFE642000F04AF940
:101CB000BBE700007437000800000020F800002097
:101CC000064E074C4FF4807529463046FFF730F931
:101CD0002070642000F036F9F6E7000000080140AB
:101CE0000000002010B5502080F31188BFF34F8F03
:101CF000BFF36F8F01F0D8F918B104494FF080504D
:101D00000860002080F3118810BD000004ED00E0A1
:101D100030B593B028216846FEF719FB14210AA8B4
:101D2000FEF715FB002501200F9510951195010474
:101D300012958DE8230004904FF4E010CDE90810CF
:101D4000022407946846FFF791FB08B172B6FEE7DC
:101D50000AA90F2081E831004FF48060CDE90D051C
:101D600002210AA8FFF786FA08B172B6FEE74FF41F
:101D7000004011900F940FA8FFF706FA002801D039
:101D800072B6FEE713B030BD704700000148FFF7A0
:101D90005ABD000074030020F0B50268194B1A4CBC
:101DA0001A4D4FF08047984205D0B84203D0A04268
:101DB00001D0A84203D122F070064A68324398420B
:101DC00005D0B84203D0A04201D0A84203D122F4EA
:101DD0004074CA6822434C6922F0800222430260A8
:101DE0008A68C2620A688262984201D10969016305
:101DF000012141610169C90703D0016921F0010195
:101E00000161F0BD002C01400004004000080040CA
:101E1000FEE70907090E002804DB00F1E02080F846
:101E20000014704700F00F0000F1E02080F8141D4E
:101E30007047EFF30580002800D0012070470000B4
:101E4000B6B0FFF78DF8FFF763FFFFF711FEFFF75E
:101E5000EFFDFFF79FFDFFF7C3FD3448FEF74CFF92
:101E60000020059042F26042CDE900200121089156
:101E70004FF6E072CDE90220CDE9060104906946F3
:101E80002A48FEF7FFFD2A4D0DF1B40C95E80F002E
:101E90008CE80F0000212DA800F060F8254C1035CB
:101EA0000DF1C40CA06195E80F008CE80F00002133
:101EB00031A800F053F8E0611C2205F110010AA8D6
:101EC000FEF713FA00210AA800F0D4F860601C2283
:101ED00005F12C0111A8FEF708FA002111A800F065
:101EE000C9F8A0601C2205F1480118A8FEF7FDF909
:101EF000002118A800F0BEF8E0601C2205F1640182
:101F00001FA8FEF7F2F900211FA800F0B3F8206126
:101F10001C2205F1800126A8FEF7E7F9002126A87A
:101F200000F0A8F8606100F014F8FEE7F800002067
:101F3000C83600080000002001460020842900D097
:101F4000C81C704710B500B9012000F06FFC0020DC
:101F500010BD10B500F0B6FC002010BD38B5D0E9BA
:101F6000011204683AB1C3682BB1002000902046EA
:101F700000F089FD38BD2046BDE83840002200F061
:101F800061BD00002DE9FF410D004FF00006CDE9D5
:101F9000016507461ED000240396501C1FD002B1D5
:101FA0001446FFF746FF69464FF01008E8B103AA50
:101FB0002846091D00F08AFF012813D000960398D7
:101FC000E8B114494FF080500860BFF34F8FBFF362
:101FD0006F8F14E0802031462A46009011E04FF0C8
:101FE000FF34DEE7CDF80080E9E722462846091DE8
:101FF00000F0D0FE012808D054B1402000909DE8A8
:10200000070087E80700BDE8FF81CDF80080F6E70C
:102010000020F3E704ED00E037B5054682B000206C
:102020000090140000D10124FFF703FF4FF00003DC
:1020300088B16A4603A9284600F04CFE012811D158
:10204000009890B10A494FF080500860BFF34F8F5D
:10205000BFF36F8F09E0224603A9284600F08AFDEE
:10206000012802D0FF2005B030BD0020FBE70000B2
:1020700004ED00E07FB50D4604464169B0F9080063
:1020800081B1A16971B1FFF757FFD4E905128DE85D
:102090000700D4E900102B46226900F0CCFF039022
:1020A00004B070BDFFF748FF03A9CDE90001208A05
:1020B0002B4682B2D4E9001000F090FF012801D035
:1020C0000020EDE70398EBE72DE9F041184C0F46AF
:1020D0000546E6682068001D00F0B6FA38B92068A9
:1020E00090F82C1001208840216981432161681CEF
:1020F00007D137B12168BDE8F0410E48091D00F055
:10210000E7BA20683544B5424560216805D2A06B26
:10211000BDE8F041091D00F0C3BA606B091D00F075
:10212000BFFAA06A854200D2A562BDE8F081000036
:1021300030000020980400202DE9F041054600F011
:10214000D3FA2E4CA068401CA06020682C4F10B120
:10215000606940B32DE02560A068012829D10026E0
:1021600006EB860007EB800000F08CFA761C072E49
:10217000F6D323488C3000F085FA2148A03000F0D7
:1021800081FA1F48B43000F07DFA1D48C83000F0D5
:1021900079FA1B48DC3000F075FA19488C3060631E
:1021A0001430A06305E02068E96AC06A884200D85C
:1021B0002560606A401C6062E96A012022698840EB
:1021C0001043206101EB810007EB8000291D00F026
:1021D0007FFA00F0A9FA606900280CD02068E96A4B
:1021E000C06A884207D207494FF080500860BFF3A9
:1021F0004F8FBFF36F8FBDE8F081000030000020EB
:10220000BC03002004ED00E030B4026C0B46002A51
:102210000BD0C1681144C1608468A14201D3016838
:10222000C16030BC1846FEF71BB830BC70472DE9C2
:10223000F041856B174604460026026C82B1C7B197
:10224000E068FEF70DF8E168206C091AE160226889
:10225000914202D2A168081AE060022F16D017E05E
:102260002068A8B9A06800F085FF06460020A0609D
:102270000EE06068FDF7F4FF216C60680844606060
:10228000A168884204D32068606001E005B16D1E3A
:102290006D1CA5633046BDE8F08110B5044690F88A
:1022A000510058B101280CD002280FD0502080F3E3
:1022B0001188BFF34F8FBFF36F8FFEE7206B00F0E5
:1022C00047FA2046BDE8104000F042BA10BD0000B9
:1022D00010484FF40051420706D0C01D0D4920F0B0
:1022E0000700411AC1F500510B4A00230144C2E91D
:1022F00000030839183A21F0070111604B600B60A8
:102300000B1AC0E9001393604FF000405360506116
:1023100070470000AC04002084000020144E154CCF
:10232000A6F1C8074FF08058DFF84C9012E000BFCC
:1023300000F0DAF9F068C568281D00F085F9A0689A
:10234000401EA0606068401E606000F0EDF9284605
:10235000FFF7A3FF60680028EAD138680128F9D99F
:10236000C9F80080BFF34F8FBFF36F8FF2E7000013
:10237000840400203000002004ED00E003460098B3
:1023800029B10260C0E90F31012100F0AFBB00604C
:10239000F8E72DE9F0479A46DDE9098481466FF0B8
:1023A0000303206B03EB82021044089E20F0070712
:1023B000780707D0502080F31188BFF34F8FBFF309
:1023C0006F8FFEE7002561B1002023180A5C83F8B7
:1023D00034200A5C12B1401C1028F6D384F8435014
:1023E00001E084F83450072E00D30626E662C4E9E3
:1023F0001165201D00F051F904F1180000F04DF9AD
:102400002461C6F107006462A061E56484F850505D
:1024100052464946384600F005F92060B8F1000FF1
:1024200001D0C8F80040BDE8F087000030B5114980
:1024300000E011460A688242FBD34B685C18844274
:1024400003D1406818444860084643681C18944209
:1024500009D1084C183C2468A24209D052681A4499
:1024600042600A6812680260814200D0086030BD94
:102470000460F9E78400002010B5044600F034F948
:10248000A06B28B15FF0000400F04EF9204610BDAB
:102490000124F9E70648416B096829B1416BC96815
:1024A000C9684968816270474FF0FF31FAE7000060
:1024B0003000002008484068401C4FF0500080F376
:1024C000118804D0BFF34F8FBFF36F8FFEE7BFF3C8
:1024D0004F8FBFF36F8FFEE78C0000202DE9F04196
:1024E000044600F001F994F9455004F1240609E08E
:1024F000606A48B1304600F089FE08B100F0C4F9C6
:102500006D1E6DB2002DF3DC4FF0FF3684F8456090
:1025100000F00AF900F0E8F894F9445004F11007CB
:1025200009E0206948B1384600F070FE08B100F0BB
:10253000ABF96D1E6DB2002DF3DC84F84460BDE88C
:10254000F04100F0F1B800002DE9F0410546002708
:1025500000F0EEF9324E306808B9FFF7B9FE706945
:1025600005424ED1C5B3083568070ED005F0070007
:10257000C0F108000544680707D0502080F3118897
:10258000BFF34F8FBFF36F8FFEE72DB370688542A7
:1025900037D82348183001460C6801E020460C4625
:1025A0006168A94202D221680029F7D131688C42C2
:1025B00027D007682168016060680837411B10292F
:1025C0000FD96019420708D0502080F31188BFF35B
:1025D0004F8FBFF36F8FFEE713E041606560FFF739
:1025E00025FF61687068401A7060B268904200D23E
:1025F000B060706901430020C4E90001F068401C2C
:10260000F06000F03DFE780707D0502080F311887D
:10261000BFF34F8FBFF36F8FFEE73846BDE8F08101
:102620006C00002010B5031F4FF080741C601B1F4E
:1026300021F001011960191F024B0B601439403859
:102640000A6010BDB5240008D0E9013201699A6022
:10265000D0E901235A604A68824201D182684A6007
:10266000002202610868401E086008687047000088
:10267000034B036003F15400086080201060704732
:102680002001002000F108014FF0FF32C0E90112E3
:10269000C160016100210160704700210161704744
:1026A00030B50B685A1C02D000F1080202E0026942
:1026B00004E02246546825689D42FAD953684B606D
:1026C00099608A60516008610168491C016030BDF1
:1026D00042684A6093688B609368596091600861B2
:1026E0000168491C01607047502080F31188BFF3D6
:1026F0004F8FBFF36F8F0A494868401C486001281C
:102700000CD10848006810F0FF0F07D0502080F36C
:102710001188BFF34F8FBFF36F8FFEE77047000044
:102720008C00002004ED00E00849486828B1401EF4
:10273000486001D180F311887047502080F31188E0
:10274000BFF34F8FBFF36F8FFEE700008C000020B8
:1027500070B500282AD0164DA0F108046068696998
:10276000084207D1502080F31188BFF34F8FBFF389
:102770006F8FFEE722683AB1502080F31188BFF3D3
:102780004F8FBFF36F8FFEE78843606000F0D0F893
:1027900060686968084468602046FFF747FE28695A
:1027A000401C2861BDE8704000F06ABD70BD0000AB
:1027B0006C0000204FF0E02000210161816105499B
:1027C0004FF47A720968B1FBF2F1491E41610721A9
:1027D000016170472C00002010B5FDF71DFD114967
:1027E00010280ED300F1E02090F8F0030A78904210
:1027F00007D2502080F31188BFF34F8FBFF36F8F44
:10280000FEE709480068896800F4E060884207D95B
:10281000502080F31188BFF34F8FBFF36F8FFEE717
:1028200010BD00008C0000200CED00E010B502008F
:1028300014D00F48006B38B1502080F31188BFF3DB
:102840004F8FBFF36F8FFEE700F072F80021104644
:10285000FFF73AFC00F014FD002807D105494FF0BE
:1028600080500860BFF34F8FBFF36F8F10BD000023
:102870003000002004ED00E002490A6A0260C968E5
:10288000416070473000002001490120C861704755
:102890003000002010B50C4650B1094909681831C4
:1028A000FFF7FEFE2046BDE810400121FFF70CBCFB
:1028B000502080F31188BFF34F8FBFF36F8FFEE777
:1028C0003000002010B586B00024039405AA04A9A6
:1028D00003A80494FFF7CCFEDDE903010094CDE9E1
:1028E000011000230EA11048059A00F0A4FB0F4927
:1028F0000028C86211D0502080F31188BFF34F8F99
:10290000BFF36F8F4FF0FF30886201204861CC60C9
:1029100006B0BDE8104000F041B806B010BD0000A0
:1029200049444C45000000001D23000830000020F1
:102930000248016B491C0163704700003000002011
:102940001448016B11B10121C16170470021C161BF
:102950000169B1FA81F1C1F11F0101EB81020E4958
:1029600051F822306BB101EB820101F108034A6892
:1029700052684A609A4201D152684A60D168016047
:102980007047502080F31188BFF34F8FBFF36F8FD4
:10299000FEE7000030000020BC0300201CB52649E3
:1029A00008780190FF20087008788DF800009DF8E5
:1029B00000009DF8002000F0F000904207D0502069
:1029C00080F31188BFF34F8FBFF36F8FFEE79DF841
:1029D00000001A4C00F0500020700720A06005E0B5
:1029E0009DF8002052008DF80020401E9DF8002028
:1029F0001206F5D4A060032807D0502080F3118878
:102A0000BFF34F8FBFF36F8FFEE74FF44070A060AE
:102A1000019808700A48016841F47001016001687A
:102A200041F070410160FFF7C5FE00206060FDF7D6
:102A3000BDFB00201CBD000000E400E08C00002075
:102A400020ED00E0F8B517460E46050013D005FB53
:102A500006F04830FFF778FD04000AD0002084F823
:102A6000460004F148023B46314628460094FFF7F1
:102A700085FC2046F8BD502080F31188BFF34F8FAE
:102A8000BFF36F8FFEE738B5049D18B153B1CAB1DB
:102A900081B120E0502080F31188BFF34F8FBFF346
:102AA0006F8FFEE7502080F31188BFF34F8FBFF385
:102AB0006F8FFEE7502080F31188BFF34F8FBFF375
:102AC0006F8FFEE739B1502080F31188BFF34F8F2D
:102AD000BFF36F8FFEE748241C46012384F846307D
:102AE0002B460094FFF74AFC204638BD70B50D46D2
:102AF000040025D0FFF7F8FDD4E90F20216802FB80
:102B00000011A1600021A163216861600A46D4E937
:102B10000F01401E00FB0121E16021464FF0FF3014
:102B200001F8440F487004F110008DB1FFF7AAFDC1
:102B300004F12400FFF7A6FDFFF7F6FD012070BDAC
:102B4000502080F31188BFF34F8FBFF36F8FFEE7E4
:102B500021690029F0D000F059FB0028ECD004498D
:102B60004FF080500860BFF34F8FBFF36F8FE3E7E4
:102B700004ED00E02DE9FF4782B01D468A464FF084
:102B80000008040003D0BAF1000F08D011E0502073
:102B900080F31188BFF34F8FBFF36F8FFEE7206C78
:102BA00038B1502080F31188BFF34F8FBFF36F8F80
:102BB000FEE7022D0AD1E06B012807D0502080F3F8
:102BC0001188BFF34F8FBFF36F8FFEE700F05EFAFF
:102BD0003F4F4FF000094FF0805648B9049838B184
:102BE000502080F31188BFF34F8FBFF36F8FFEE744
:102BF000FFF77AFDA06BE16B884207D3022D05D069
:102C00000498D0B1B8F1000F1AD01EE02A46514600
:102C10002046FFF70CFB616A19B104F1240000F0B3
:102C2000F5FA20B13E60BFF34F8FBFF36F8FFFF710
:102C30007BFD012006B0BDE8F087FFF775FD22E0BF
:102C40006846FFF719FE4FF00108FFF76DFDFFF72B
:102C50006FFEFFF749FD94F94400401C01D184F850
:102C6000449094F94500401C01D184F84590FFF749
:102C70005BFD04A9684600F077F930B12046FFF704
:102C80002DFC00F0FDFA0020D4E7FFF72DFDA06B2E
:102C9000E16B884213D1FFF747FD04F1100004995E
:102CA000FFF7F8FD2046FFF719FC00F0E9FA0028CD
:102CB0009ED13E60BFF34F8FBFF36F8F98E7FFF752
:102CC00033FD2046FFF70AFC00F0DAFA90E7000037
:102CD00004ED00E02DE9F0471F46904689460400C8
:102CE00003D0B9F1000F08D011E0502080F3118813
:102CF000BFF34F8FBFF36F8FFEE7206C38B15020CA
:102D000080F31188BFF34F8FBFF36F8FFEE7022F61
:102D10000AD1E06B012807D0502080F31188BFF35F
:102D20004F8FBFF36F8FFEE7FFF756FD5020EFF395
:102D3000118680F31188BFF34F8FBFF36F8FA06BA5
:102D4000E16B884206D3022F04D0002086F311885D
:102D5000BDE8F08794F94550A06B3A4649462046B5
:102D6000FFF765FA681C04D06D1C84F845500120FB
:102D7000ECE7606A0028FAD004F1240000F046FA7B
:102D80000028F4D0B8F1000FF1D00121C8F80010EC
:102D9000EDE700002DE9F747002683B08A460400DE
:102DA00003D0BAF1000F08D011E0502080F3118851
:102DB000BFF34F8FBFF36F8FFEE7206C38B1502009
:102DC00080F31188BFF34F8FBFF36F8FFEE700F0E2
:102DD0005DF9DFF8F4804FF000094FF0805748B9F3
:102DE000059838B1502080F31188BFF34F8FBFF39F
:102DF0006F8FFEE7FFF778FCA56BC5B15146204603
:102E0000FFF702FA6D1EA563206950B104F11000AE
:102E100000F0FCF928B1C8F80070BFF34F8FBFF382
:102E20006F8FFFF781FC012006B0BDE8F0870598A1
:102E300008B11EB106E0FFF777FC27E06846FFF710
:102E40001BFD0126FFF770FCFFF772FDFFF74CFC3E
:102E500094F94400401C01D184F8449094F9450051
:102E6000401C01D184F84590FFF75EFC05A9684637
:102E700000F07AF8002820460AD0FFF72FFB00F078
:102E8000FFF92046FFF7F8FA0028B3D00020CBE77F
:102E9000FFF7F2FA90B104F124000599FFF7FAFC6C
:102EA0002046FFF71BFB00F0EBF90028A2D1C8F881
:102EB0000070BFF34F8FBFF36F8F9BE72046FFF784
:102EC0000DFB00F0DDF995E704ED00E02DE9F0479A
:102ED00090468946040003D0B9F1000F08D011E0F4
:102EE000502080F31188BFF34F8FBFF36F8FFEE741
:102EF000206C38B1502080F31188BFF34F8FBFF39F
:102F00006F8FFEE7FFF768FC5020EFF3118680F328
:102F10001188BFF34F8FBFF36F8FA76BF7B194F991
:102F2000445049462046FFF76FF97F1EA763681C8F
:102F300004D06D1C84F84450012010E02069002862
:102F4000FAD004F1100000F061F90028F4D0B8F1D3
:102F5000000FF1D00121C8F80010EDE7002086F342
:102F60001188BDE8F08700002DE9F0410C4605000E
:102F700011D0C4B1FFF7B8FB174BDA686E68206850
:102F8000911B471C17D02F681B6A9F4219D096428D
:102F900017D8012410E0502080F31188BFF34F8F21
:102FA000BFF36F8FFEE7502080F31188BFF34F8F80
:102FB000BFF36F8FFEE70024FFF7B6FB2046BDE8A6
:102FC000F081884205D9401A20602846FFF754FC5A
:102FD000F1E700202060DCE7300000202DE9FF5FF2
:102FE0008346DDE90E87994616468A469000FFF72C
:102FF000ABFA05001CD05420FFF7A6FA040014D049
:103000000020256384F85100CDE90240CDE9008716
:103010004B46324651465846FFF7BBF92046FFF76C
:103020008BF8012004B0BDE8F09F2846FFF790FB25
:103030004FF0FF30F6E7F0B585B0DDE90B640A9D8F
:10304000A6B1DCB1542700972663022684F85160AC
:10305000002604AFCDE90246CDE90057FFF799F904
:103060002046FFF769F8049805B0F0BD502080F3C2
:103070001188BFF34F8FBFF36F8FFEE7502080F3AF
:103080001188BFF34F8FBFF36F8FFEE7054841698B
:1030900019B1006B18B10020704701207047022061
:1030A00070470000300000202DE9F0412F4C002631
:1030B000206B28B1A069401CA0613046BDE8F081BA
:1030C000E5686D1CE56013D1606B006838B1502075
:1030D00080F31188BFF34F8FBFF36F8FFEE7606BF4
:1030E000A16B6163A063206A401C2062FFF7D2F9E4
:1030F000A06ADFF87C80854209D3606B0068A0B1CC
:10310000606BC068C7687868854211D2A062206889
:10311000C06A00EB800158F82100012800D901267F
:10312000E0690028C9D00126C7E74FF0FF30EDE77E
:10313000381DFFF789FAB86A18B107F11800FFF7D0
:1031400083FAF96A0120226988401043206101EB6B
:10315000810108EB8100391DFFF7BAFAF86A21688E
:10316000C96A8842C9D30126C7E7000030000020A1
:10317000BC03002070B504004FF0000140D0214D89
:103180002868844207D0502080F31188BFF34F8F06
:10319000BFF36F8FFEE7A06C38B1401EA064636C74
:1031A000E26A9A422CD040B12AE0502080F3118884
:1031B000BFF34F8FBFF36F8FFEE7201DFFF744FA79
:1031C000114A012150B9E06A00EB800352F8233024
:1031D00023B92B6901FA00F083432B61606CE06234
:1031E000C0F10700A061E06A2B69814019432961A1
:1031F00000EB800002EB8000211DFFF769FA01213E
:10320000084670BD30000020BC0300202DE9F041CD
:10321000C068C468ACB104F118000746FFF714FA9F
:10322000154D286B0126A0B139461448FFF750FA16
:10323000E06A2968C96A88421CD90120EE61BDE8AC
:10324000F081502080F31188BFF34F8FBFF36F8F51
:10325000FEE7201DFFF7F8F9E16A2A6906FA01F096
:103260001043286101EB81000449B43901EB80006F
:10327000211DDBE70020E2E7300000207004002081
:103280002DE9F0472C4D00242746286B38B1FFF775
:103290002BFA286B401E2863286B40B146E0502073
:1032A00080F31188BFF34F8FBFF36F8FFEE7A968DC
:1032B000224E0120D1B3A6F1B40980463068E8B1AE
:1032C000F068C46804F11800FFF7BEF9201DFFF78D
:1032D000BBF9E06A2A6908FA00F11143296100EBA1
:1032E000800109EB8100211DFFF7F2F9E06A2968EE
:1032F000C96A8842E2D3C5F81C80DFE70CB1FFF74A
:10330000C9F8AC6944B14646FFF7CEFE00B1EE61A4
:10331000641EF9D10020A861E86938B10849012785
:1033200038070860BFF34F8FBFF36F8FFFF7FCF9CB
:103330003846BDE8F087000030000020700400200F
:1033400004ED00E04FF47F0C1CEAD0121EBF1CEA13
:10335000D11392EA0C0F93EA0C0F00F0858090EAEB
:10336000010F48BF42F4807240F4000C41F40000A9
:103370002CF07F4120F07F4000B58142A2EB030298
:103380000FF2081CACEB504EC0F100009EF800E0BC
:103390004FEA4E0E00FB0EFC38BF49004FEA2C1CD2
:1033A00002F5FA020CFB0EF34FEACE1E4FEA112C87
:1033B0004FEAC1210EEB635E42EB22420EFB0CFC96
:1033C0004FEA1C5300FB03114FEA112C4FEA013165
:1033D0000EFB0CFC4FEADC4C00FB0C11C14228BF79
:1033E00009184CEB03335DF804EB10EB410143EBA0
:1033F000C250B2F57C0F38BF704729D512F0F00FDC
:103400001CBF00F1C04000F0004070470081828383
:103410008485868788898B8C8D8E8F9192939596E3
:1034200097999A9C9D9FA0A2A3A5A7A8AAACAEB06D
:10343000B2B3B5B7B9BCBEC0C2C5C7C9CCCED1D472
:10344000D7D9DCDFE2E6E9ECF0F3F7FAFE000000A2
:103450004FEA400C0CF1807CBCF17E4F28BF7047D6
:10346000B0F1C04000F02BB990EA010F0CEAD11383
:1034700048BF42F48072624538BF634507D213F4F7
:103480007F0F16D080EA010000F00040704710B5B1
:1034900000F0CFF8097EFC3E00F005B880EA01009C
:1034A00000F00040704780EA010000F0004000F0AA
:1034B00006B912F47F0F04BF0248704780EA01008A
:1034C00000F0FDB80000C07FC10DD1F19E0206DB07
:1034D0004FEA002343F0004323FA02F07047004212
:1034E00007D54FEA4001B1F1FE4F02D24FF0000084
:1034F000704710B500F09DF8499224800020704775
:103500006FEA200070470000B0FA80F310FA03F26F
:10351000C3F19D030AD0D90501EB1220530638BF31
:10352000704700F1010008BF20F001007047000063
:103530004FF47F0C1CEAD0121EBF1CEAD11392EA92
:103540000C0F93EA0C0F00F0478090EA010F48BF80
:1035500042F480724FF0004C4CEA00204CEA01210A
:1035600002EB0302A0FB0113A2F50002002918BF21
:1035700043F001035B0028BF4FEA330342EB2242D2
:103580005FEA132C4CEBC2502EBFBCEB436FB2F57D
:103590007C0F70474FEA036CBCF1004F08BF20F06E
:1035A0000100B2F57C0F38BF70470BD582F0FF02E7
:1035B00012F5803FC8BF704700F1C040D8BF00F08F
:1035C0000040704700F5000C5FEA4C0C48BF7047A4
:1035D000B0F1C04000F073B890EA010F0CEAD113CB
:1035E00048BF42F48072624538BF634504D280EA26
:1035F000010000F00040704710B500F01AF800BF5D
:103600008900013E00F007B800F009B85FEA410CFC
:103610005FEA1C6C08D080EA010000F050B85FEA55
:10362000400C5FEA1C6CF6D14FF00040A0F5800022
:1036300070470EF1020E2EF0030E5EF8044B24428A
:1036400004D44FEA4102B2F17F4F11D84FEA400350
:10365000B3F17F4F0CD80ED14FEAD07CB2F17F4F3F
:103660000CEB4C0C0CF1020C08BF4CEBD17C04E0D1
:103670004FF0080C01E04FEAD17C0CEB4C0324FA2C
:1036800003F404F00704B4F1040C06D20EEB840C2E
:10369000BDE810404CF0010C6047DFE80CF0070873
:1036A00002024FF00040A0F5800010BD0846420025
:1036B00018BFD2F1807288BF00F0004010BDFF211A
:1036C00041EAD050C005704704000000040000002B
:1036D00000000000000000000400000003000000E3
:1036E0000000000000000000043800081D1B000856
:1036F000000000000000000080000000000000004A
:1037000000000000E0370008251B00080000000052
:103710000000000080000000000000000000000029
:10372000F8370008C91B0008000000000000000076
:10373000800000000000000000000000EC370008DE
:10374000111C0008020000000000000080000000C2
:10375000000000000000000010380008C11C000834
:1037600001000000000000008000000000000000D8
:103770000000000001030000000000000000000045
:103780000000000005000000000000000202000030
:103790000000000000000000000000000100000028
:1037A00000000000010202030405060708090A0BD5
:1037B0000C0D0E0F10100102020304050607080984
:1037C0000A0B0C0D0E0F101000000000000000008E
:1037D00001020304060708090000000001020304B7
:1037E0004144435F5461736B0000000043414E5FEE
:1037F0005461736B000000004750494F5F54617380
:103800006B00000064656661756C745461736B00D5
:103810004272616B655F7461736B00003C38000835
:10382000000000209800000028010008D43800089B
:1038300098000020782A00004401000800000000E1
:103840000000000000000000000000000000000078
:103850000000000000000000000000000100000067
:10386000100000000000000000127A0000000000BC
:103870000000000000000000000000000000000048
:103880000000000000000000000000000000000038
:103890000000000000000000000000000000000028
:1038A0000000000000000000000000000000000018
:1038B0000000000000000000000000000000000008
:1038C000000000000000000000000000AAAAAAAA50
:0438D00000000000F4
:04000005080000ED02
:00000001FF
