:020000040800F2
:1000000098060020890100084B0E0008010E000828
:10001000490E00088F020008B50E0008000000001D
:100020000000000000000000000000004F0E00086B
:1000300091020008000000004D0E0008510E00085B
:10004000A3010008A3010008A3010008A301000800
:10005000A3010008A3010008A3010008A3010008F0
:10006000A3010008A3010008A3010008A3010008E0
:10007000A3010008A3010008A3010008A3010008D0
:10008000A3010008A3010008A3010008A3010008C0
:10009000A3010008A3010008A3010008A3010008B0
:1000A000A3010008A3010008A3010008A3010008A0
:1000B000A3010008A3010008A3010008A301000890
:1000C000A3010008A3010008A3010008A301000880
:1000D000A3010008A3010008A3010008A301000870
:1000E000A3010008A3010008A301000800F002F822
:1000F00000F03AF80AA090E8000C82448344AAF188
:100100000107DA4501D100F02FF8AFF2090EBAE885
:100110000F0013F0010F18BFFB1A43F0010318473B
:100120007C0E00009C0E0000103A24BF78C878C1F5
:10013000FAD8520724BF30C830C144BF04680C60ED
:10014000704700000023002400250026103A28BF35
:1001500078C1FBD8520728BF30C148BF0B60704739
:100160001FB51FBD10B510BD00F058F81146FFF7C0
:10017000F7FF00F0B1FE00F076F803B4FFF7F2FFEE
:1001800003BC00F07DF8000009488047094800479B
:10019000FEE7FEE7FEE7FEE7FEE7FEE7FEE7FEE737
:1001A000FEE7FEE704480549054A064B7047000094
:1001B000B30E0008ED00000898000020980600200B
:1001C00098020020980200204FF0000200B513466C
:1001D00094469646203922BFA0E80C50A0E80C5067
:1001E000B1F12001BFF4F7AF090728BFA0E80C5018
:1001F00048BF0CC05DF804EB890028BF40F8042B11
:1002000008BF704748BF20F8022B11F0804F18BF7D
:1002100000F8012B7047704770477047754600F033
:100220002BF8AE4605006946534620F00700854688
:1002300018B020B5FFF7B6FFBDE820404FF000062C
:100240004FF000074FF000084FF0000B21F00701BE
:10025000AC46ACE8C009ACE8C009ACE8C009ACE801
:10026000C0098D46704710B50446AFF300802046A4
:10027000BDE81040FFF781BF0048704738000020FC
:1002800001491820ABBEFEE7260002007047FEE7DA
:100290007047F0B590F820500468A468012D05D08F
:1002A000022D03D0416A41F480214DE014F0406FEB
:1002B00001D1E50045D5C4F301640125A5401D60C9
:1002C0008D684FF4C0739DB1CE6835434E6845EAE2
:1002D000C605066803EB0417F5514FF4C2750768AD
:1002E00005EB04150E697E51097D012905D009E051
:1002F0000E88CD6845EA4655EBE701684E5946F44D
:1003000080764E511179D2F805504FF4C67641EA05
:100310000521056806EB0416A9511178D2F80120D1
:100320004FF4C47541EA0221026805EB04155151EE
:10033000006803EB0411425842F0010242500020D1
:10034000F0BD416A41F4001141620120F0BD00009E
:1003500010B590F820300268012B07D0022B05D091
:10036000416A41F480214162012010BDD2F80002AF
:1003700040F00100C2F80002087D00F01F030120D8
:100380009840D2F81C328343C2F81C32CB69B3B90F
:10039000D2F80C328343C2F80C328C894B6864F378
:1003A0001F434C6902EBC404C4F840320C890B684B
:1003B00064F31F434C6902EBC404C4F84432CB69B4
:1003C000012B16D1D2F80C320343C2F80C320C8840
:1003D0004B6864F31F434C6902EBC404C4F8403219
:1003E0000C89CB6864F31F434C6902EBC404C4F866
:1003F00044328B69002BD2F804320FD053EA000349
:10040000C2F804320B69002BD2F8143208D003432F
:10041000C2F81432096A012904D008E08343EFE7E7
:100420008343F5E7D2F81C120143C2F81C12D2F83C
:10043000000220F00100C2F80002002010BD70B5DB
:10044000040003D094F8200010B104E0012070BD36
:10045000204600F081F82068016841F00101016048
:1004600000F0DEF90546052604E000F0D9F9401B4E
:100470000A2811D820684068C007F6D020680168B3
:1004800021F00201016000F0CBF905460BE000F01D
:10049000C7F9401B0A2806D9606A40F40030606240
:1004A00084F82060D2E7206840688007EFD4207E7F
:1004B0000128206801683DD021F080010160607E44
:1004C00001282068016838D021F040010160A07E39
:1004D00001282068016833D021F020010160E07E0E
:1004E0000128206801682ED041F010010160207FB2
:1004F00001282068016829D021F008010160607F8F
:1005000001282068016824D021F004010160D4E9A9
:1005100002010843D4E90412114308436168491EEB
:1005200008432168C86100206062012084F820002F
:10053000002070BD41F08001C0E741F04001C5E7F7
:1005400041F02001CAE721F01001CFE741F0080196
:10055000D4E741F00401D9E710B586B0002100913D
:1005600001910291039100681349884222D11348F6
:10057000C16941F00071C161C16901F0007104916C
:10058000816941F00401816180690D4C00F0040033
:1005900004904FF4006000906946204600F050F847
:1005A000A014009002200190032003906946204689
:1005B00000F046F806B010BD006400400010024094
:1005C0000008014070B5044690F82000012804D0CE
:1005D000606A40F40020606218E0022084F8200085
:1005E0002068016821F00101016000F019F9054659
:1005F0000EE000BF00F014F9401B0A2808D9606A19
:1006000040F400306062052084F82000012070BDB5
:1006100020684068C007EDD1606270BD70B50446C7
:1006200000F0FEF80546601C02D00448007804443F
:1006300000F0F6F8401BA042FAD370BD0000002085
:100640002DE9F84FDFF8B8910024A9F1040B2346F7
:100650000F2709F1040AABF1040EC9E00125A540FA
:100660002A40AA427DD1674ED1F804C0ACEB0608FF
:10067000B44532D014DCBCF1030F3AD009DCBCF134
:10068000000F2AD0BCF1010F1CD0BCF1020F31D1F8
:100690001DE0BCF1110F17D0BCF1120F2AD119E0E7
:1006A000B8F5881F19D006DCB8F5803F15D0B8F52D
:1006B000801F1FD111E0B8F5001F0ED0B8F5041F40
:1006C00018D10AE0CB6815E0CB681B1D12E0CB689F
:1006D00008330FE0CB680C330CE08B682BB1012B97
:1006E0004FF0080303D0456104E0042302E00561F4
:1006F00000E00023FF2A01D8064601E000F10406CD
:100700004FEA840501D9A5F12005D6F8008007FA43
:1007100005FC28EA0C0803FA05F548EA0508C6F8BE
:1007200000804D68ED0062D5374DAE6946F0010698
:10073000AE61AD6924F0030605F001050095334D67
:1007400006EB050CDCF80850A607360F07FA06F88A
:1007500025EA0805DFF8B880404503D14FF00008CE
:1007600017E044E0DFF8AC80404502D14FF00108CB
:100770000FE0DFF8A480404502D14FF0020808E006
:10078000DFF89880404502D14FF0030801E04FF0B8
:10079000040808FA06F848EA0508CCF808804D680D
:1007A000D9F80060ED024D4601D5164300E09643AE
:1007B0002E604D68DAF80060AD02554601D516434B
:1007C00000E096432E604D68DBF80060AD035D46A7
:1007D00001D5164300E096432E604D68DEF80060B8
:1007E000ED03754601D5164300E096432E60641C68
:1007F0000D682A46E5407FF431AFBDE8F88F000070
:1008000008040140000011100010024000000140E7
:1008100000080140000C014000100140001401409C
:10082000014880687047000000000020024881688D
:10083000027811448160704700000020074810B51D
:10084000016841F010010160032000F067F80F20FB
:1008500000F006F800F024F8002010BD002002404F
:1008600070B50D4D04464FF47A712878B1FBF0F065
:100870000A490968B1FBF0F000F0AEFA48B9102C53
:1008800007D200222146501E00F028F800206C609C
:1008900070BD012070BD0000000000200C00002091
:1008A0000C4808B5816941F001018161816901F05D
:1008B00001010091C16941F08051C161C06900F03E
:1008C000805000900448416821F0E06141F00071DF
:1008D000416008BD0010024000000140F0B40E4B22
:1008E0001B680C46C3F30223C3F10705042D00D98E
:1008F0000425191D072901D2002300E0DB1E012673
:1009000006FA05F1491E214099409E40761E164088
:100910003143F0BC00F0CFBA0CED00E0064900F026
:10092000070208684FF6FF03184040EA0220034A16
:1009300010430860704700000CED00E00000FA056D
:100940002DE9F0470F46050061D0434E306800F0B6
:100950000700B84209D2306820F007003843306001
:10096000306800F00700B84251D128683B4C81073D
:1009700012D5400703D5606840F4E06060602878D5
:10098000000703D5606840F4605060606068A96843
:1009900020F0F000084360602878C00728D068681D
:1009A000012810D02168022810D0890700292EDAEA
:1009B000616821F0030101436160FFF731FF804668
:1009C00041F288390DE021688903EFE78901EDE7FD
:1009D000FFF726FFA0EB0801494502D90320BDE837
:1009E000F0876068696800F00C00B0EB810FEFD110
:1009F000306800F00700B8420BD9306820F00700DB
:100A000038433060306800F00700B84201D0012060
:100A1000E5E72878400705D56068E96820F4E060DC
:100A2000084360602878000706D56068296920F4CB
:100A3000605040EAC100606000F018F86168084A40
:100A4000C1F30311515CC8400649086006480068BC
:100A5000FFF706FF0020C2E700200240001002401E
:100A60008A0F00080C000020040000200E4A516884
:100A70000E4801F00C03042B11D0082B0FD10C48A9
:100A8000C1F38343C903C05C0AD55168084AC1F366
:100A90004041921E515C054A5043B0FBF1F0704753
:100AA00004494843704700000010024000127A00D9
:100AB0007A0F000800093D002DE9F84F040070D0BE
:100AC0002078C04DC00749D06868C0F38100012874
:100AD00007D06868C0F38100022809D16868C003A4
:100AE00006D52868800339D560680028E7D035E04E
:100AF0006068B0F5803F0BD010B1B0F5A02F11D0D9
:100B0000286820F480302860286820F4802002E0E3
:100B1000286840F480302860606890B1FFF780FE5C
:100B200006460AE0286840F480202860F0E700BF0D
:100B3000FFF776FE801B642873D828688003F7D5FA
:100B40000CE0FFF76DFE064605E000BFFFF768FE0C
:100B5000801B6428F0D828688003F7D420789A4E48
:100B600080074FF001094FF0000839D5686810F090
:100B70000C0F07D06868C0F38100022809D16868AB
:100B8000C00306D42868800714D52069012808D13D
:100B900010E02069B0B1C6F80090FFF741FE0746AB
:100BA00005E00AE1FFF73CFEC01B0228C4D8286814
:100BB0008007F7D52868616920F0F80040EAC10095
:100BC00028600DE0C6F80080FFF72AFE074604E023
:100BD000FFF726FEC01B022823D828688007F7D419
:100BE000207800072CD57948A169D9B1C0F80090C8
:100BF000FFF716FE074604E0FFF712FEC01B0228AF
:100C00000FD8686A8007F7D571484FF4FA51006829
:100C1000B0FBF1F0009000BF0098411E0091FAD2A5
:100C20000EE080E0C0F80080FFF7FAFD074604E020
:100C3000FFF7F6FDC01B022875D8686A8007F7D455
:100C40002078400760D5E8690027C00008D4E8692B
:100C500040F08050E861E869012700F08050009082
:100C60005C480168C90513D40168834641F480716A
:100C70000160FFF7D5FD824606E000BFFFF7D0FD1B
:100C8000A0EB0A0064284ED8DBF80000C005F5D5BB
:100C9000E06801280AD008B1052813D0286A20F09E
:100CA00001002862286A20F0040002E0286A40F06F
:100CB00001002862E06841F2883B98B1FFF7B0FD7F
:100CC00082460BE0286A40F004002862EEE700BF8D
:100CD000FFF7A6FDA0EB0A0159455AD8286A8007FC
:100CE000F6D50CE0FFF79CFD824605E0FFF798FD86
:100CF000A0EB0A0159454CD8286A8007F6D41FB1E9
:100D0000E86920F08050E861E06988B36968C1F360
:100D10008101022944D00228C6F8608004D0FFF780
:100D20007FFD044638E034E0FFF77AFD074604E033
:100D3000FFF776FDC01B02282BD828688001F7D466
:100D4000206AB0F5803F05D16868A16820F40030C2
:100D500008436860D4E908010843696821F4741104
:100D600008436860C6F86090FFF75AFD044606E045
:100D700025E000BFFFF754FD001B022809D82868B2
:100D80008001F7D51BE000BFFFF74AFD001B0228DA
:100D900002D90320BDE8F88F28688001F4D40EE062
:100DA0000128F7D06868226A00F48031914204D1AA
:100DB000616A00F47010884201D00120EAE7002047
:100DC000E8E7000000100240000042428004424276
:100DD0000C0000200070004010B5401EB0F1807F74
:100DE00001D3012010BD4FF0E02460610F21601796
:100DF00000F061F80020A06107202061002010BDF4
:100E0000FEE700000F4810B50D4901600621416062
:100E100000214FF4A0228160C0E903124FF4E002E8
:100E200042610176012242768276C176017742776D
:100E3000FFF705FB002801D072B6FEE710BD0000E9
:100E40000064004010000020FEE7FEE77047704796
:100E5000FFF7ECBC30B58FB028216846FFF7B4F936
:100E600014210AA8FFF7B0F901210804CDE9001008
:100E70000024029402250491CDE907504FF4E010BC
:100E800009906846FFF718FE08B172B6FEE70F201A
:100E9000CDE90A054FF48060CDE90C4002210AA893
:100EA0000E94FFF74DFD002801D072B6FEE70FB09B
:100EB00030BD7047FEE70907090E002804DB00F18A
:100EC000E02080F80014704700F00F0000F1E020EF
:100ED00080F8141D7047000094B0FFF7AFFCFFF7D7
:100EE000B9FF2048816941F020018161816901F0E9
:100EF00020011391816941F004018161806900F052
:100F000004001390FFF77EFF1748FFF75BFB0024F8
:100F1000059442F26041CDE90014012008904FF69B
:100F2000E071CDE90214CDE90640049469460E480B
:100F3000FFF70EFA0D49D1E90001CDE9100140F2A9
:100F400023100A900C940420CDE90D404FF47A74DC
:100F500012AB10AA0AA90448FFF79BF92046FFF735
:100F60005DFBF5E70010024010000020700F000844
:100F70000204060700000000010202030405060740
:100F800008090A0B0C0D0E0F1010000000000000E5
:100F9000000001020304060708090000BC0F000856
:100FA000000000201000000028010008CC0F0008FD
:100FB0001000002088060000440100080100000025
:0C0FC000100000000000000000127A0089
:04000005080000ED02
:00000001FF
