:020000040800F2
:10000000F006002089010008EF190008E91800082F
:10001000ED19000865030008811A000800000000BF
:10002000000000000000000000000000F3190008BC
:100030006703000800000000F1190008F519000826
:10004000A3010008A3010008A3010008A301000800
:10005000A3010008A3010008A3010008A3010008F0
:10006000A3010008A3010008A3010008A3010008E0
:10007000A3010008A3010008A3010008A3010008D0
:10008000A3010008A3010008A3010008A3010008C0
:10009000751A0008A3010008A3010008A3010008C5
:1000A000A3010008A3010008A3010008A3010008A0
:1000B000A3010008A3010008A3010008A301000890
:1000C000A3010008A3010008A3010008A301000880
:1000D000A3010008A3010008A3010008A301000870
:1000E000A3010008A3010008A301000800F002F822
:1000F00000F03AF80AA090E8000C82448344AAF188
:100100000107DA4501D100F02FF8AFF2090EBAE885
:100110000F0013F0010F18BFFB1A43F0010318473B
:10012000181E0000381E0000103A24BF78C878C19D
:10013000FAD8520724BF30C830C144BF04680C60ED
:10014000704700000023002400250026103A28BF35
:1001500078C1FBD8520728BF30C148BF0B60704739
:100160001FB51FBD10B510BD00F058F81146FFF7C0
:10017000F7FF01F097FC00F076F803B4FFF7F2FF09
:1001800003BC00F07DF8000009488047094800479B
:10019000FEE7FEE7FEE7FEE7FEE7FEE7FEE7FEE737
:1001A000FEE7FEE704480549054A064B7047000094
:1001B000711A0008ED000008F0000020F006002091
:1001C000F0020020F00200204FF0000200B51346BC
:1001D00094469646203922BFA0E80C50A0E80C5067
:1001E000B1F12001BFF4F7AF090728BFA0E80C5018
:1001F00048BF0CC05DF804EB890028BF40F8042B11
:1002000008BF704748BF20F8022B11F0804F18BF7D
:1002100000F8012B7047704770477047754600F033
:100220002BF8AE4605006946534620F00700854688
:1002300018B020B5FFF7B6FFBDE820404FF000062C
:100240004FF000074FF000084FF0000B21F00701BE
:10025000AC46ACE8C009ACE8C009ACE8C009ACE801
:10026000C0098D46704710B50446AFF300802046A4
:10027000BDE81040FFF781BF004870478C000020A8
:1002800001491820ABBEFEE72600020070470000BF
:1002900070B5044600688168C943C90717D18168F1
:1002A00021F00101816000F049FF05460AE000BF2E
:1002B00000F044FF401B022804D920688068C04336
:1002C000C00706D020688068C043C007F0D0002077
:1002D00070BDA06A40F01000A062E06A40F001002A
:1002E000E062012070BD0000F8B5002604460096CB
:1002F00000688168C943C9072DD0816841F00101B8
:100300008160164816490068B0FBF1F000E0401E1D
:1003100000900028FBD100F011FF054616E000BF59
:1003200000F00CFF401B022810D920688068C043F1
:10033000C0070BD0A06A40F01000A062E06A40F055
:100340000100E06284F824600120F8BD2068806824
:10035000C043C007E4D10020F8BD000030000020F9
:1003600040420F00FEE77047F8B50024009490F873
:1003700024202546012A12D0012280F824204A6830
:100380001F23072A0DD20668776B521E02EB8202EA
:1003900093409F430B6893401F43776319E002200B
:1003A000F8BD06680D2A0AD2376BD21F02EB820213
:1003B00093409F430B6893401F43376309E0F76AFC
:1003C0000D3A02EB820293409F430B6893401F4318
:1003D000F7620A68072306680A2A0AD3F7680A3A06
:1003E00002EB420293409F438B6893401F43F760A8
:1003F00008E0376902EB420293409F438B689340C9
:100400001F4337610A68102A01D0112A20D1124BEC
:1004100002689A4217D193681B0219D4936843F477
:10042000000393600968102912D10C490C4A09682D
:10043000B1FBF2F101EB8101490000E0491E00919E
:100440000029FBD104E0816A41F02001816201248E
:1004500080F824502046F8BD0024014030000020E0
:1004600040420F000068C06C704700002DE9F04169
:100470004FF0000704003D467ED0A06A002628B950
:10048000E66284F82460204600F07EF82046FFF7FC
:10049000FFFEA16AC90600D420B1A06A40F0100096
:1004A000A06269E0A16A21F4885141F00201A162D1
:1004B0006268E169237B0A4347EA43010A43A16872
:1004C0004FF48077B94209D0012907D05FF00001CD
:1004D00094F814C0BCF1010F02D00AE03946F7E7E6
:1004E000F3B1A36A43F02003A362E36A43F001037C
:1004F000E3622368D3F804C02CF4694C4CEA010C85
:10050000C3F804C021688B68DFF870C003EA0C03ED
:1005100013438B60A168B9420BD0012909D00CE0CC
:10052000DFF85CC0A3690CEB43330B4343F4006179
:10053000DFE7218A0D05A5F580152168CB6A23F434
:1005400070032B43CB62216889680E4B194091429E
:1005500008D1E662A16A21F0020141F00101A16225
:10056000BDE8F081A06A20F0020040F01000A06217
:10057000E06A40F00100E0620120F1E7FDF7E1FFF1
:1005800000E0FFFFFE0E1FFF00B585B000210091C7
:1005900001910291039100680E49884218D10E48DA
:1005A000816941F400718161816901F400710491F4
:1005B000816941F0040181618069694600F00400AD
:1005C00004900420009003200190044800F0C0FC37
:1005D00005B000BD002401400010024000080140A9
:1005E0002DE9F84300270D460446009700F0A6FDCC
:1005F000804620688168C90508D5A06A40F02000BF
:10060000A06284F824700120BDE8F8834168C90520
:1006100003D4C06A10F4700F2AD0022000F02CFE20
:100620003B490968B1FBF0F62068036939490B4280
:100630004FEA61014FEAA1121FD1C3684FEA611C62
:1006400013EA0C0F19D103690B4225D1C06810427F
:1006500022D1142023E0681C0AD02DB100F06EFDD9
:10066000A0EB0800A84203D920680068800725D5C0
:10067000206800688007EED52DE003690B4202D1A7
:10068000C168114206D0026923490A4206D1C068F6
:10069000084203D1542002E0292000E0FC20464318
:1006A000009816E0681C11D02DB100F047FDA0EBBA
:1006B0000800A8420AD90098B04207D2A06A40F0C8
:1006C0000400A06284F8247003209DE70098401C79
:1006D0000090B042E6D321686FF012000860A06A73
:1006E00040F40070A06220688068C0F34240072890
:1006F0000CD1207B50B9A06A20F48070A062A06A5F
:10070000C00403D4A06A40F00100A06200207BE78F
:1007100030000020244992244992240070B50446F8
:1007200090F8240001280DD0012084F824002046F0
:10073000FFF7DAFD02004FF0000005D084F8240036
:10074000104670BD022070BDA16A40F2012399439A
:1007500041F48071A1621F4D23681F49AB4218D13B
:100760000E6816F4702F14D0A66A46F48016A6629E
:100770000E68760505D5A66A26F4005646F480561E
:10078000A662A66AF6040AD5E66A26F00606E662BE
:1007900006E0A66A26F48016A6625E68E9E7E062D3
:1007A00084F824006FF00200186020688368C3F3A7
:1007B0004243072B05D1A84208D1096811F4702FD4
:1007C00004D0816841F480118160B9E7816841F407
:1007D000A001F9E7002801400424014010B50446B7
:1007E00090F82400012807D0012084F82400204636
:1007F000FFF74EFD10B107E0022010BDA16A21F401
:10080000885141F00101A162002184F8241010BD3B
:1008100090F82020012A07D0022A05D0416A41F42D
:100820008021416201207047006842690A434261A9
:1008300000207047F0B590F820500468A468012D9E
:1008400005D0022D03D0416A41F480214DE014F01F
:10085000406F01D1E50045D5C4F301640125A540F1
:100860001D608D684FF4C0739DB1CE6835434E68EE
:1008700045EAC605066803EB0417F5514FF4C27547
:10088000076805EB04150E697E51097D012905D025
:1008900009E00E88CD6845EA4655EBE701684E59F8
:1008A00046F480764E511179D2F805504FF4C67651
:1008B00041EA0521056806EB0416A9511178D2F822
:1008C00001204FF4C47541EA0221026805EB0415CA
:1008D0005151006803EB0411425842F001024250AA
:1008E0000020F0BD416A41F4001141620120F0BDD9
:1008F00010B590F820300268012B07D0022B05D0EC
:10090000416A41F480214162012010BDD2F8000209
:1009100040F00100C2F80002087D00F01F03012032
:100920009840D2F81C328343C2F81C32CB69B3B969
:10093000D2F80C328343C2F80C328C894B6864F3D2
:100940001F434C6902EBC404C4F840320C890B68A5
:1009500064F31F434C6902EBC404C4F84432CB690E
:10096000012B16D1D2F80C320343C2F80C320C889A
:100970004B6864F31F434C6902EBC404C4F8403273
:100980000C89CB6864F31F434C6902EBC404C4F8C0
:1009900044328B69002BD2F804320FD053EA0003A3
:1009A000C2F804320B69002BD2F8143208D003438A
:1009B000C2F81432096A012904D008E08343EFE742
:1009C0008343F5E7D2F81C120143C2F81C12D2F897
:1009D000000220F00100C2F80002002010BD7047A4
:1009E00070B590F82040012C05D0022C03D0416A4C
:1009F00041F4802128E0046809B32469A40720D0C9
:100A00004FF4D874056804EB01142D5915F0040552
:100A1000956005682D591AD0ED08556005682C5968
:100A200004F00204D4604FF4DA74056804EB011496
:100A30002E5906F00F06082E0CD308250DE0E468A9
:100A4000DCE7416A41F400114162012070BD6D0D87
:100A50001560E3E72D5905F00F05156105682D595F
:100A6000C5F30725956105682C59240C54614FF492
:100A7000DC72046802EB0112A4581C700468A458CC
:100A8000240A5C700468A458240C9C700468A25862
:100A9000120EDA704FF4DE72046802EB0112A458F1
:100AA0001C710468A458240A5C710468A458240CBE
:100AB0009C710468A258120EDA71006829B10169AC
:100AC00041F020010161002070BDC16841F02001AA
:100AD000C160F8E72DE9F05F05460068002446692B
:100AE000D0F804908768D0F80CB0D0F810A0D0F8F7
:100AF0001880F10748D0F90714D001218160B807A8
:100B000003D5284600F01DFA0CE0780702D54FF413
:100B1000006407E0380702D54FF4805402E028460D
:100B200000F00EFAF80516D529684FF48070886039
:100B3000B80503D5284600F006FA0CE0780502D582
:100B400044F4005407E0380502D544F4804402E040
:100B5000284600F0F7F9F80316D529684FF48030DD
:100B60008860B80303D5284600F0EFF90CE078035D
:100B700002D544F4004407E0380302D544F480343D
:100B800002E0284600F0E0F9300707D55FEACB60C5
:100B900004D52968102044F40074C86070074FF031
:100BA000080707D55FEA0B7004D52868C760284698
:100BB00000F05AF9B00706D52868C068800702D04F
:100BC000284600F053F9700607D55FEACA6004D5DD
:100BD0002968102044F480640861B00607D55FEAF4
:100BE0000A7004D528680761284600F079F9F006F4
:100BF00006D528680069800702D0284600F071F900
:100C0000B00308D55FEAC96005D52968102048609F
:100C1000284600F067F9F00307D55FEA097004D5AC
:100C200028684760284600F091F9300446D55FEA0D
:100C3000497040D5F00504D55FEAC87001D044F092
:100C40000104B00504D55FEA887001D544F00204C0
:100C5000700504D55FEA487001D544F004043005FE
:100C600029D518F0700F26D008F07000402815D054
:100C700006DC102809D020280AD0302816D10AE036
:100C800050280ED0602811D10EE044F008040DE089
:100C900044F010040AE044F0200407E044F040046B
:100CA00004E044F0800401E044F480742868816921
:100CB00021F070018161296804204860002C05D072
:100CC000686A204368622846FFF789FEBDE8F09F06
:100CD00070B5040003D094F8200010B104E00120A6
:100CE00070BD204600F082F82068016841F00101E3
:100CF000016000F023FA0546052604E000F01EFA24
:100D0000401B0A2811D820684068C007F6D0206828
:100D1000016821F00201016000F010FA05460BE0C5
:100D200000F00CFA401B0A2806D9606A40F4003033
:100D3000606284F82060D2E7206840688007EFD4C2
:100D4000207E0128206801683DD021F080010160EB
:100D5000607E01282068016838D021F040010160E0
:100D6000A07E01282068016833D021F020010160B5
:100D7000E07E0128206801682ED041F0100101605A
:100D8000207F01282068016829D021F00801016036
:100D9000607F01282068016824D021F004010160EF
:100DA000D4E902010843D4E90412114308436168FD
:100DB000491E08432168C86100206062012084F850
:100DC0002000002070BD41F08001C0E741F04001EB
:100DD000C5E741F02001CAE721F01001CFE741F05B
:100DE0000801D4E741F00401D9E7000010B586B04E
:100DF00000210091019102910391006817498842F6
:100E00002AD11748C16941F00071C161C16901F07F
:100E100000710491816941F0040181618069114C84
:100E200000F0040004904FF40060009069462046F2
:100E300000F08EF8A014009002200190032003908F
:100E40006946204600F084F800221146142000F084
:100E5000E1F9142000F0D0F906B010BD00640040A4
:100E600000100240000801407047000010B58AB031
:100E70006B4602AA0021FFF7B3FD002824D1029897
:100E8000A0F5407101391FD1069808281CD1134ADA
:100E9000002069460B5C1354401C0828FADBBDF89F
:100EA000000041BA0D480E380180BDF8022052BA48
:100EB00042809DF80430DC09047100230C38B2F53F
:100EC000487F00D814B143800AB010BDB1F5167F39
:100ED00002D201210170F7E70370F5E71A00002044
:100EE000704770477047000070B5044690F82000C6
:100EF000012804D0606A40F40020606218E00220FB
:100F000084F820002068016821F00101016000F0F0
:100F100015F905460EE000BF00F010F9401B0A2845
:100F200008D9606A40F400306062052084F820002F
:100F3000012070BD20684068C007EDD1606270BDBF
:100F400070477047704770477047704770470000A0
:100F50002DE9F84FDFF8B8910024A9F1040B2346DE
:100F60000F2709F1040AABF1040EC9E00125A540E1
:100F70002A40AA427DD1674ED1F804C0ACEB0608E6
:100F8000B44532D014DCBCF1030F3AD009DCBCF11B
:100F9000000F2AD0BCF1010F1CD0BCF1020F31D1DF
:100FA0001DE0BCF1110F17D0BCF1120F2AD119E0CE
:100FB000B8F5881F19D006DCB8F5803F15D0B8F514
:100FC000801F1FD111E0B8F5001F0ED0B8F5041F27
:100FD00018D10AE0CB6815E0CB681B1D12E0CB6886
:100FE00008330FE0CB680C330CE08B682BB1012B7E
:100FF0004FF0080303D0456104E0042302E00561DB
:1010000000E00023FF2A01D8064601E000F10406B3
:101010004FEA840501D9A5F12005D6F8008007FA2A
:1010200005FC28EA0C0803FA05F548EA0508C6F8A5
:1010300000804D68ED0062D5374DAE6946F001067F
:10104000AE61AD6924F0030605F001050095334D4E
:1010500006EB050CDCF80850A607360F07FA06F871
:1010600025EA0805DFF8B880404503D14FF00008B5
:1010700017E044E0DFF8AC80404502D14FF00108B2
:101080000FE0DFF8A480404502D14FF0020808E0ED
:10109000DFF89880404502D14FF0030801E04FF09F
:1010A000040808FA06F848EA0508CCF808804D68F4
:1010B000D9F80060ED024D4601D5164300E0964395
:1010C0002E604D68DAF80060AD02554601D5164332
:1010D00000E096432E604D68DBF80060AD035D468E
:1010E00001D5164300E096432E604D68DEF800609F
:1010F000ED03754601D5164300E096432E60641C4F
:101100000D682A46E5407FF431AFBDE8F88F000056
:1011100008040140000011100010024000000140CE
:1011200000080140000C0140001001400014014083
:101130000AB1016170470904FBE7000001488068BB
:1011400070470000240000200248816802781144A2
:101150008160704724000020074810B5016841F005
:1011600010010160032000F075F80F2000F006F870
:1011700000F024F8002010BD0020024070B50D4D95
:1011800004464FF47A712878B1FBF0F00A490968F7
:10119000B1FBF0F000F094FB48B9102C07D200220C
:1011A0002146501E00F036F800206C6070BD012012
:1011B00070BD000024000020300000200C4808B55D
:1011C000816941F001018161816901F001010091B2
:1011D000C16941F08051C161C06900F08050009048
:1011E0000448416821F0E06141F00071416008BDB0
:1011F0000010024000000140002809DB00F01F023F
:10120000012191404009800000F1E020C0F8001168
:1012100070470000F0B40E4B1B680C46C3F302236A
:10122000C3F10705042D00D90425191D072901D292
:10123000002300E0DB1E012606FA05F1491E2140CD
:1012400099409E40761E16403143F0BC00F019BC18
:101250000CED00E0064900F0070208684FF6FF03B6
:10126000184040EA0220034A10430860704700001B
:101270000CED00E00000FA0510B501460020234CFB
:10128000012922D0022939D010291DD16168226894
:10129000D20119D51E48C1F38342C903805C0AD527
:1012A00061681B4AC1F34041921E515C194AB2FB6E
:1012B000F1F1484301E0184948436168490203D409
:1012C00040000321B0FBF1F010BD226AC2F30121FE
:1012D000012903D1920701D5C80310BD022905D108
:1012E000626A920702D549F6404010BD0329FCD13D
:1012F00021688903F9D54FF2244010BD00F01AF996
:101300006168C1F38131491C4900DBE700100240EC
:10131000101F000800127A0000093D002DE9F84373
:1013200005460078354CC00754D0E0690026C0005F
:1013300008D4E06940F08050E061E069012600F0E7
:10134000805000902E480168C90512D4016880467B
:1013500041F480710160FFF7F1FE074605E000BF30
:10136000FFF7ECFEC01B642823D8D8F80000C005A6
:10137000F6D5206A10F4407021D0A98801F440719C
:1013800081421CD0206A1F49012220F440700A606B
:1013900000220A602062C00711D0FFF7CFFE074687
:1013A00041F2883808E000BFFFF7C8FEC11B414585
:1013B00002D90320BDE8F883206A8007F4D5206AAB
:1013C000696820F44070084320621EB1E06920F093
:1013D0008050E0612878800705D56068A96820F40E
:1013E0004040084360602878C00605D56068E96819
:1013F00020F48000084360600020DBE7001002401A
:1014000000700040400442422DE9F0470F460500BD
:1014100061D0434E306800F00700B84209D230680E
:1014200020F0070038433060306800F00700B84211
:1014300051D128683B4C810712D5400703D560681D
:1014400040F4E06060602878000703D5606840F4ED
:10145000605060606068A96820F0F0000843606038
:101460002878C00728D06868012810D02168022891
:1014700010D0890700292EDA616821F003010143A9
:101480006160FFF75BFE804641F288390DE021681C
:101490008903EFE78901EDE7FFF750FEA0EB0801B4
:1014A000494502D90320BDE8F0876068696800F00B
:1014B0000C00B0EB810FEFD1306800F00700B842AC
:1014C0000BD9306820F0070038433060306800F0F6
:1014D0000700B84201D00120E5E72878400705D58C
:1014E0006068E96820F4E0600843606028780007DD
:1014F00006D56068296920F4605040EAC100606048
:1015000000F028F86168084AC1F30311515CC84033
:101510000649086006480068FFF730FE0020C2E771
:101520000020024000100240201F00083000002070
:10153000280000200448054900684968044AC1F3AE
:10154000C221515CC84070473000002000100240AA
:10155000301F00080E4A51680E4801F00C03042B9E
:1015600011D0082B0FD10C48C1F38343C903C05CD1
:101570000AD55168084AC1F34041921E515C054AA0
:101580005043B0FBF1F070470449484370470000F6
:101590000010024000127A00FE1E000800093D0003
:1015A0002DE9F84F040070D02078C04DC00749D015
:1015B0006868C0F38100012807D06868C0F3810023
:1015C000022809D16868C00306D52868800339D588
:1015D00060680028E7D035E06068B0F5803F0BD048
:1015E00010B1B0F5A02F11D0286820F48030286009
:1015F000286820F4802002E0286840F480302860C9
:10160000606890B1FFF79AFD06460AE0286840F44A
:1016100080202860F0E700BFFFF790FD801B642862
:1016200073D828688003F7D50CE0FFF787FD0646DE
:1016300005E000BFFFF782FD801B6428F0D8286812
:101640008003F7D420789A4E80074FF001094FF0BD
:10165000000839D5686810F00C0F07D06868C0F32F
:101660008100022809D16868C00306D42868800771
:1016700014D52069012808D110E02069B0B1C6F85E
:101680000090FFF75BFD074605E00AE1FFF756FD16
:10169000C01B0228C4D828688007F7D5286861696C
:1016A00020F0F80040EAC10028600DE0C6F8008094
:1016B000FFF744FD074604E0FFF740FDC01B02288A
:1016C00023D828688007F7D4207800072CD57948DC
:1016D000A169D9B1C0F80090FFF730FD074604E0DA
:1016E000FFF72CFDC01B02280FD8686A8007F7D5CA
:1016F00071484FF4FA510068B0FBF1F0009000BF60
:101700000098411E0091FAD20EE080E0C0F80080FF
:10171000FFF714FD074604E0FFF710FDC01B022889
:1017200075D8686A8007F7D42078400760D5E869E3
:101730000027C00008D4E86940F08050E861E869FB
:10174000012700F0805000905C480168C90513D45F
:101750000168834641F480710160FFF7EFFC824627
:1017600006E000BFFFF7EAFCA0EB0A0064284ED8B1
:10177000DBF80000C005F5D5E06801280AD008B103
:10178000052813D0286A20F001002862286A20F07A
:10179000040002E0286A40F001002862E06841F29B
:1017A000883B98B1FFF7CAFC82460BE0286A40F0FC
:1017B00004002862EEE700BFFFF7C0FCA0EB0A01BF
:1017C00059455AD8286A8007F6D50CE0FFF7B6FCD1
:1017D000824605E0FFF7B2FCA0EB0A0159454CD860
:1017E000286A8007F6D41FB1E86920F08050E861CC
:1017F000E06988B36968C1F38101022944D00228F5
:10180000C6F8608004D0FFF799FC044638E034E065
:10181000FFF794FC074604E0FFF790FCC01B02288A
:101820002BD828688001F7D4206AB0F5803F05D115
:101830006868A16820F4003008436860D4E90801B2
:101840000843696821F4741108436860C6F8609021
:10185000FFF774FC044606E025E000BFFFF76EFCCE
:10186000001B022809D828688001F7D51BE000BFBB
:10187000FFF764FC001B022802D90320BDE8F88FA3
:1018800028688001F4D40EE00128F7D06868226A45
:1018900000F48031914204D1616A00F470108842F2
:1018A00001D00120EAE70020E8E700000010024034
:1018B000000042428004424230000020007000409C
:1018C00010B5401EB0F1807F01D3012010BD4FF054
:1018D000E02460610F21601700F0D3F80020A061C0
:1018E00007202061002010BDFEE700003EB5002467
:1018F00011480094019402940E49846001600473BD
:101900000475012505614FF460214460C161FEF753
:10191000ADFD08B172B6FEE70220CDE900056946CB
:1019200002940548FEF720FD002801D072B6FEE7BC
:101930003EBD000000240140340000200E4810B5D8
:101940000C4901600421416000214FF44022816074
:10195000C0E903129200426101760122427682764A
:10196000C17601774277FFF7B3F9002801D072B64C
:10197000FEE710BD006400406400002070B586B032
:10198000002418480094019402940394816941F062
:1019900010018161816901F010010491816941F0B8
:1019A00020018161816901F020010491816941F088
:1019B0000401816180690C4E00F004004FF4005571
:1019C0000490002229463046FFF7B2FB0120009523
:1019D000CDE901040220039069463046FFF7B8FACA
:1019E00006B070BD0010024000100140FEE7FEE7A7
:1019F00070477047FFF7A8BB30B593B02821684601
:101A0000FEF7E2FB14210AA8FEF7DEFB0025012009
:101A10000F9510951195010412958DE823000490FF
:101A20004FF4E010CDE90810022407946846FFF750
:101A3000B7FD08B172B6FEE70AA90F2081E83100B0
:101A40004FF48060CDE90D0502210AA8FFF7DCFC08
:101A500008B172B6FEE74FF4004011900F940FA842
:101A6000FFF75CFC002801D072B6FEE713B030BD72
:101A7000704700000148FFF72DB800006400002007
:101A8000FEE70907090E002804DB00F1E02080F8DA
:101A90000014704700F00F0000F1E02080F8141DE2
:101AA0007047000090B0FFF757FBFFF7A5FFFFF767
:101AB00065FFFFF743FFFFF719FF2B48FFF714FA05
:101AC0000020059046F22002CDE900200121089176
:101AD0004FF6E072CDE90220CDE906010490694697
:101AE0002148FEF705FF02211F48FEF791FE214C19
:101AF000DFF87880DFF87890022640F2012704F1C1
:101B0000120519483038FEF709FE17480A21303807
:101B1000FEF766FD14483038FEF7A4FC00F00EF91D
:101B2000606011483038FEF759FE4146606800F0A9
:101B300023F8494600F016F900F0E0F880B2608022
:101B4000217801B14008608080B2010A0A970E96A0
:101B50002970084B6870083303F10A020AA9024889
:101B6000FEF768FECDE700006400002000F07F452E
:101B70000080BB44000000204FF47F0C1CEAD01210
:101B80001EBF1CEAD11392EA0C0F93EA0C0F00F06F
:101B9000858090EA010F48BF42F4807240F4000C47
:101BA00041F400002CF07F4120F07F4000B58142DD
:101BB000A2EB03020FF2081CACEB504EC0F1000088
:101BC0009EF800E04FEA4E0E00FB0EFC38BF4900C5
:101BD0004FEA2C1C02F5FA020CFB0EF34FEACE1E64
:101BE0004FEA112C4FEAC1210EEB635E42EB224219
:101BF0000EFB0CFC4FEA1C5300FB03114FEA112CA7
:101C00004FEA01310EFB0CFC4FEADC4C00FB0C11DF
:101C1000C14228BF09184CEB03335DF804EB10EB0D
:101C2000410143EBC250B2F57C0F38BF704729D554
:101C300012F0F00F1CBF00F1C04000F000407047F0
:101C4000008182838485868788898B8C8D8E8F9195
:101C50009293959697999A9C9D9FA0A2A3A5A7A8B9
:101C6000AAACAEB0B2B3B5B7B9BCBEC0C2C5C7C9E5
:101C7000CCCED1D4D7D9DCDFE2E6E9ECF0F3F7FA49
:101C8000FE0000004FEA400C0CF1807CBCF17E4F5E
:101C900028BF7047B0F1C04000F02BB990EA010FA7
:101CA0000CEAD11348BF42F48072624538BF6345E5
:101CB00007D213F47F0F16D080EA010000F0004035
:101CC000704710B500F0CFF8097EFC3E00F005B873
:101CD00080EA010000F00040704780EA010000F057
:101CE000004000F006B912F47F0F04BF02487047AD
:101CF00080EA010000F0FDB80000C07FC10DD1F105
:101D00009E0206DB4FEA002343F0004323FA02F071
:101D10007047004207D54FEA4001B1F1FE4F02D2B1
:101D20004FF00000704710B500F09DF849922480F4
:101D3000002070476FEA200070470000B0FA80F37F
:101D400010FA03F2C3F19D030AD0D90501EB12206A
:101D5000530638BF704700F1010008BF20F00100B2
:101D6000704700004FF47F0C1CEAD0121EBF1CEA23
:101D7000D11392EA0C0F93EA0C0F00F0478090EA1F
:101D8000010F48BF42F480724FF0004C4CEA002033
:101D90004CEA012102EB0302A0FB0113A2F50002B1
:101DA000002918BF43F001035B0028BF4FEA33034B
:101DB00042EB22425FEA132C4CEBC2502EBFBCEB2D
:101DC000436FB2F57C0F70474FEA036CBCF1004FD4
:101DD00008BF20F00100B2F57C0F38BF70470BD56B
:101DE00082F0FF0212F5803FC8BF704700F1C0408B
:101DF000D8BF00F00040704700F5000C5FEA4C0CC3
:101E000048BF7047B0F1C04000F073B890EA010FCE
:101E10000CEAD11348BF42F48072624538BF634573
:101E200004D280EA010000F00040704710B500F0D5
:101E30001AF800BF8900013E00F007B800F009B8A9
:101E40005FEA410C5FEA1C6C08D080EA010000F0F8
:101E500050B85FEA400C5FEA1C6CF6D14FF00040CE
:101E6000A0F5800070470EF1020E2EF0030E5EF812
:101E7000044B244204D44FEA4102B2F17F4F11D8FF
:101E80004FEA4003B3F17F4F0CD80ED14FEAD07C1C
:101E9000B2F17F4F0CEB4C0C0CF1020C08BF4CEB79
:101EA000D17C04E04FF0080C01E04FEAD17C0CEB50
:101EB0004C0324FA03F404F00704B4F1040C06D232
:101EC0000EEB840CBDE810404CF0010C6047DFE8DD
:101ED0000CF0070802024FF00040A0F5800010BD92
:101EE0000846420018BFD2F1807288BF00F000405F
:101EF00010BDFF2141EAD050C00570470102020326
:101F00000405060708090A0B0C0D0E0F101001023C
:101F100002030405060708090A0B0C0D0E0F10102A
:101F20000000000000000000010203040607080989
:101F30000000000001020304581F000800000020F8
:101F400034000000280100088C1F00083400002025
:101F5000BC06000044010008000000000000000072
:101F60000000000000000000000000000000000071
:101F70000000000000000000000000000100000060
:0C1F8000100000000000000000127A00B9
:04000005080000ED02
:00000001FF
